:100000000C9478010C946B060C9498060C94C5061D
:100010000C94F2060C94A0010C94A0010C941F0700
:100020000C94A0010C94A0010C94730E0C94FA0E85
:100030000C94A0010C94A0010C94A0010C94A001BC
:100040000C94A0010C94A0010C94A0010C94A001AC
:100050000C94A0010C94A0010C94A0010C944C07EA
:100060000C94A0010C94A0010C94A0010C94A0018C
:100070000C94A0010C94A0010C94A0010C94A0017C
:100080000C94A0010C94A0010C94A0010C94A0016C
:100090000C94A0010C94A0010C94A0010C94A0015C
:1000A0000C94A0010C94A0010C94A001000000008D
:1000B000240027002A002D00300000000000250049
:1000C00028002B002E003100000000002300260035
:1000D00029002C002F000404040404030405020278
:1000E00002020403020202020606060606060404D1
:1000F00002020204040802011040804010204080E7
:10010000408008020401804020100201108010206D
:1001100040400000000200080E0000030401000B34
:1001200000000000000000000000000000000000CF
:10013000070605040100080A0B0C0D09080B000254
:10014000020201000904000001020200000524006F
:100150001001052401010104240206052406000102
:100160000705810310004009040100020A00000095
:100170000705020240000007058302400000050158
:100180000902A1010901A10085010509190129033D
:1001900015002501950375018102950175058103FF
:1001A00005010930093109381581257F7508950346
:1001B0008106C0C005010906A1018502050719E0F5
:1001C00029E715002501750195088102950175083B
:1001D0008103950675081500256505071900296531
:1001E0008100C0090402000103000000092101018F
:1001F00000012265000705840340000100000000A3
:10020000000000002A2B2800000000000000000071
:100210000000000000000000000000002C9EB4A0C0
:10022000A1A2A434A6A7A5AE362D3738271E1F20BD
:10023000212223242526B333B62EB7B89F84858682
:100240008788898A8B8C8D8E8F90919293949596C6
:100250009798999A9B9C9D2F3130A3AD3504050644
:100260000708090A0B0C0D0E0F10111213141516A6
:100270001718191A1B1C1DAFB1B0B50004030904EF
:100280002203410072006400750069006E006F0077
:1002900020004D006900630072006F002000200004
:1002A00020001803410072006400750069006E00B0
:1002B0006F0020004C004C004300120100020000BF
:1002C00000404123378000010102000112010002B9
:1002D000020000404123378000010102000100C1FB
:1002E0008081C100CC0193039609B80AAD0DC50108
:1002F00011241FBECFEFDAE0DEBFCDBF11E0A0E0DA
:10030000B1E0EEE2F1E202C005900D92AC3CB10723
:10031000D9F712E0ACECB1E001C01D92A439B107ED
:10032000E1F712E0CEEED2E004C02297FE010E9477
:100330008610C43ED107C9F70E94F80B0C948A10AE
:100340000C9400000F938130910581F46F5F7F4F13
:10035000D1F485ED91E062E043E026E001E00E9407
:10036000A30581EE91E00E940C060DC0892B59F483
:100370006F5F7F4F41F481EE91E00E94D90585EDDA
:1003800091E00E9407040F91089580E090E06FEFE4
:100390007FEF0E94A201089581E090E06FEF7FEF70
:1003A0000E94A201089585ED91E00E942404089521
:1003B000EF92FF921F93CF93DF93C0E0D0E0E82E3F
:1003C000FF24FE01E655FE4F1081C7010C2E02C02E
:1003D000959587950A94E2F780FF06C08EE792E034
:1003E000612F0E94DC0B0CC08EE792E0612F0E940F
:1003F0008C0A882329F08EE792E0612F0E94D40BAB
:100400002196C230D105E9F6DF91CF911F91FF907F
:10041000EF900895EF92FF920F931F93DF93CF9386
:1004200000D000D000D0CDB7DEB70E949407611590
:1004300071058105910541F40E94940762307105B0
:100440008105910508F471C00E9494079B01AC01DD
:100450006093D1017093D2018093D3019093D40122
:100460008091CC019091CD01A091CE01B091CF01AE
:10047000281739074A075B0740F42093CC013093D3
:10048000CD014093CE015093CF018091CC0190914A
:10049000CD01A091CE01B091CF0179018A01E81A76
:1004A000F90A0A0B1B0BD801C7018A3F9105A10568
:1004B000B105D8F18091D0018823B9F52093CC0102
:1004C0003093CD014093CE015093CF0186EE91E061
:1004D0000E94DB03809117029091180260E071E0A6
:1004E0000E94E40C809117029091180268E071E07C
:1004F0000E94E40C00911702109118020E949407C8
:10050000AB01BC01C8012AE030E00E94D50C80910B
:100510001702909118026AE071E00E94E70C62E015
:1005200070E080E090E00E94A20785ED91E00E94DB
:100530000804882331F185ED91E00E940B046C835F
:100540007D838E83DE011196FE01349683E0019057
:100550000D928150E1F72B81098102FF07C08EE7E0
:1005600092E060E040E00E94AD0B0BC021958EE769
:1005700092E06A81422F20E00E94AD0B802F0E9402
:10058000D8018091E2019091E30108970CF058C0E6
:100590001092E5011092E40140C06091E401709175
:1005A000E50181EE91E00E94DA05892BB9F0E09136
:1005B000E201F091E3018091E4019091E50134E0E2
:1005C000EE0FFF1F3A95E1F7E80FF91FE05EFE4FCF
:1005D0008FE792E060810E943C0B16C0E091E2013F
:1005E000F091E3018091E4019091E50124E0EE0FA8
:1005F000FF1F2A95E1F7E80FF91FE05EFE4F8FE736
:1006000092E060810E94F90A8091E4019091E501F5
:1006100001969093E5018093E4018091E40190912B
:10062000E50140970CF4B9CF8091E2019091E3018C
:1006300001969093E3018093E2012D9A2D9806C0D4
:100640001092E3011092E2012C9A2C9826960FB694
:10065000F894DEBF0FBECDBFCF91DF911F910F91F8
:10066000FF90EF900895EF92FF920F931F9306EE85
:1006700011E040E7E42E42E0F42EC801B70120E08B
:1006800032EC41E050E00E94940360ED77E080E0BE
:1006900090E00E94A207C8010E94DB03809117022C
:1006A0009091180261E171E00E94E70C6AE070E04D
:1006B00080E090E00E94A207C80160E040E00E9454
:1006C000920387E062E00E945B0889E061E00E949B
:1006D0005B0888E061E00E945B088FE792E00E947F
:1006E000990A8EE792E00E948B0AC70160E875E2E2
:1006F0000E944B0905ED11E0C8010E94BE05C8012A
:1007000060EC0E948105C8010E94860581E063EDCE
:1007100071E042E050E00E9416061F910F91FF9099
:10072000EF900895089508950F931F93CF93DF934B
:100730008B01FC0172AB61ABCB01B9010E944B098B
:10074000C0E0D0E00AC0CA31D10561F0219668EC62
:1007500070E080E090E00E94A207C8010E94AD090D
:10076000882389F3DF91CF911F910F910895CF9343
:10077000DF93EC01662339F015C063E070E080E0A0
:1007800090E00E94A2070E94940729813A814B8140
:100790005C81621B730B840B950B613271058105C3
:1007A000910558F30E94940769837A838B839C8315
:1007B000DF91CF91089560E00E94B70308952CB5B2
:1007C000382F33702C7F322B3CBD2DB590E09595A2
:1007D00087959595879581702E7F822B8DBD089585
:1007E00081E161E00E94E80881E161E00E945B082C
:1007F0008CB580618CBD8CB580648CBD8FE061E070
:100800000E945B0880E161E00E945B080895089502
:10081000FC0183850895DF93CF9300D00F92CDB76D
:10082000DEB7DE011196FC01339683E001900D9254
:100830008150E1F769817A818B8190E00F900F9070
:100840000F90CF91DF910895CF93DF93EC011B863A
:1008500089810E941B0920E0892B09F021E028876B
:100860008E8181508F838F81883058F489852885C7
:100870009F8130E002C0220F331F9A95E2F7822B4E
:1008800089878E818F5F8E838E818B30C1F48A85BC
:10089000813041F0813018F0823079F409C08985C7
:1008A0008B8302C089858C838A858F5F8A8705C088
:1008B00089858D831A8681E08B871E821986DF9158
:1008C000CF9108951F93162F862F61E00E945B0839
:1008D000812F60E00E94E8081F9108951F93162F52
:1008E000862F60E00E945B08812F61E00E94E8088B
:1008F0001F910895FF920F931F93CF93DF93EC0105
:1009000068810E946E04CE0169810E946E0482E3B8
:1009100090E00E94FB0788810E941B090197D9F390
:1009200085E090E00E94FB0788810E941B09892BCB
:10093000D9F3FF2400E011E088810E941B09019790
:10094000D9F389810E941B09019709F4F12A888152
:100950000E941B09892BD9F30F5F083011F0110F8A
:10096000EBCF88810E941B090197D9F388810E94EF
:100970001B09892BD9F388810E941B090197D9F3A0
:1009800088810E941B09892BD9F3CE0168810E94BE
:1009900062048F2DDF91CF911F910F91FF900895E9
:1009A000DF92EF92FF920F931F93CF93DF93EC01AF
:1009B000D62E69810E946E04CE0168810E946E0469
:1009C0008CE291E00E94FB07CE0168810E946204E4
:1009D0008CE291E00E94FB07CE0169810E946204D3
:1009E0008AE090E00E94FB07CE0168810E946E04BD
:1009F00088810E941B090197D9F3EE24FF24F39408
:100A00000D2D10E0D0FE05C0CE0169810E946E045C
:100A100004C0CE0169810E94620488810E941B0982
:100A2000892BD9F388810E941B090197D9F381E0B2
:100A3000D822FD24E39488E0E81621F01595079567
:100A4000D02EDECFFF2029F0CE0169810E946E04F6
:100A500004C0CE0169810E94620488810E941B0942
:100A6000892BD9F388810E941B090197D9F3CE0104
:100A700069810E946E0482E390E00E94FB078881F6
:100A80000E941B090197D9F388810E941B09892BB9
:100A9000D9F389810E941B09892BB1F3CE016881AA
:100AA0000E946204DF91CF911F910F91FF90EF9010
:100AB000DF900895EF92FF920F931F938C01F62E13
:100AC000E42E62EE0E94D004C8010E947A04C8019C
:100AD00061E80E94D004C8010E947A04C8016F2D09
:100AE0000E94D004C8010E947A04C8016E2D0E94A1
:100AF000D004C8010E947A041F910F91FF90EF90DB
:100B00000895462F6AE40E945A0508950F931F9393
:100B10008C016AEE0E94D004C8010E947A04C801C8
:100B200064EF0E94D004C8010E947A04C801F80151
:100B300060810E946E04C801F80161810E946E0408
:100B40001F910F9108950F93CF93DF93EC0168836A
:100B500049832A83002331F01E821F82188619865A
:100B60001A861B86CE0168810E946E04CE016981BF
:100B70000E946E04DF91CF910F9108950F931F9300
:100B80008C01FC01828161E00E945B08F801828196
:100B900061E00E94E80860ED77E080E090E00E946C
:100BA000A207F801828160E00E94E8081F910F917E
:100BB000089508956031710518F020E030E02AC0F2
:100BC0006830710514F093E101C092E18F9881E4DF
:100BD0008EBD0DB407FEFDCF8EB59EBD0DB407FED4
:100BE000FDCF8EB51EBC0DB407FEFDCF4EB58F9A5E
:100BF0006830710514F06850704020E030E081E00A
:100C000090E002C0880F991F6A95E2F7482311F01F
:100C100021E030E0C901089582E161E00E945B08B3
:100C200082E00E94DF030E94F0030895853008F0FF
:100C300051C0E82FF0E0EE0FFF1FE75EFD4F71831C
:100C40006083823009F1833030F4882349F08130A9
:100C500009F040C00DC0833021F18430D9F52EC099
:100C6000809169008C7F842B80936900E89A0895B5
:100C700080916900440F551F440F551F837F842BBB
:100C800080936900E99A08958091690034E0440FE7
:100C9000551F3A95E1F78F7C842B80936900EA9A7F
:100CA00008958091690026E0440F551F2A95E1F7C9
:100CB0008F73842B80936900EB9A089580916A006A
:100CC00094E0440F551F9A95E1F78F7C842B809315
:100CD0006A00EE9A08951F920F920FB60F92112498
:100CE0002F933F934F935F936F937F938F939F9334
:100CF000AF93BF93EF93FF938091190290911A02E3
:100D0000892B29F0E0911902F0911A020995FF91BF
:100D1000EF91BF91AF919F918F917F916F915F9173
:100D20004F913F912F910F900FBE0F901F901895EC
:100D30001F920F920FB60F9211242F933F934F9350
:100D40005F936F937F938F939F93AF93BF93EF9333
:100D5000FF9380911B0290911C02892B29F0E09156
:100D60001B02F0911C020995FF91EF91BF91AF9189
:100D70009F918F917F916F915F914F913F912F91B3
:100D80000F900FBE0F901F9018951F920F920FB6E5
:100D90000F9211242F933F934F935F936F937F9301
:100DA0008F939F93AF93BF93EF93FF9380911D0217
:100DB00090911E02892B29F0E0911D02F0911E02F4
:100DC0000995FF91EF91BF91AF919F918F917F9185
:100DD0006F915F914F913F912F910F900FBE0F90A8
:100DE0001F9018951F920F920FB60F9211242F93F8
:100DF0003F934F935F936F937F938F939F93AF93A3
:100E0000BF93EF93FF9380911F0290912002892B53
:100E100029F0E0911F02F09120020995FF91EF91D6
:100E2000BF91AF919F918F917F916F915F914F9102
:100E30003F912F910F900FBE0F901F9018951F920A
:100E40000F920FB60F9211242F933F934F935F93FE
:100E50006F937F938F939F93AF93BF93EF93FF9382
:100E60008091210290912202892B29F0E0912102A8
:100E7000F09122020995FF91EF91BF91AF919F915F
:100E80008F917F916F915F914F913F912F910F9033
:100E90000FBE0F901F9018951F920F920FB60F92D2
:100EA00011242F933F938F939F93AF93BF93809180
:100EB000270290912802A0912902B0912A02309134
:100EC0002B020196A11DB11D232F2D5F2D3720F080
:100ED0002D570196A11DB11D20932B02809327024F
:100EE00090932802A0932902B0932A0280912302B2
:100EF00090912402A0912502B09126020196A11D95
:100F0000B11D8093230290932402A0932502B093F5
:100F10002602BF91AF919F918F913F912F910F909A
:100F20000FBE0F901F9018958FB7F894209127024D
:100F3000309128024091290250912A028FBFB901B5
:100F4000CA0108959B01AC017FB7F89480912302F8
:100F500090912402A0912502B091260266B5A89B2B
:100F600005C06F3F19F00196A11DB11D7FBFBA2FBB
:100F7000A92F982F8827860F911DA11DB11D62E012
:100F8000880F991FAA1FBB1F6A95D1F7BC012DC0FE
:100F9000FFB7F8948091230290912402A09125023A
:100FA000B0912602E6B5A89B05C0EF3F19F0019667
:100FB000A11DB11DFFBFBA2FA92F982F88278E0F13
:100FC000911DA11DB11DE2E0880F991FAA1FBB1F33
:100FD000EA95D1F7861B970B885E9340C8F22150A3
:100FE00030404040504068517C4F2115310541054B
:100FF000510571F60895019739F0880F991F880FF0
:10100000991F02970197F1F70895789484B582604B
:1010100084BD84B5816084BD85B5826085BD85B59C
:10102000816085BDEEE6F0E0808181608083E1E84B
:10103000F0E0108280818260808380818160808383
:10104000E0E8F0E0808181608083E1E9F0E0808188
:1010500082608083808181608083E0E9F0E080812C
:1010600081608083E1ECF0E0808184608083808116
:1010700082608083808181608083E3ECF0E0808106
:1010800081608083E0ECF0E0808182608083E2EC2C
:10109000F0E0808181608083EAE7F0E08081846015
:1010A0008083808182608083808181608083808171
:1010B000806880830895CF93DF93482F50E0CA0162
:1010C0008C509F4FFC0134914A525F4FFA0184913A
:1010D000882369F190E0880F991FFC01E455FF4FC8
:1010E000A591B491FC01E654FF4FC591D4916623BC
:1010F00051F42FB7F8948C91932F909589238C936A
:10110000888189230BC0623061F42FB7F8948C91E9
:10111000932F909589238C938881832B88832FBF6D
:1011200006C09FB7F8948C91832B8C939FBFDF915F
:10113000CF910895883071F1893068F4823031F1AF
:10114000833020F4813009F042C01DC0833089F023
:101150008430E9F512C08B3059F18C3028F4893095
:10116000E9F08A30A1F51EC08C3031F18E3079F56E
:1011700029C0809180008F7703C0809180008F7D8F
:1011800080938000089584B58F7702C084B58F7DE9
:1011900084BD0895809190008F7707C08091900062
:1011A0008F7D03C080919000877F80939000089589
:1011B0008091C0008F7703C08091C0008F7D8093A5
:1011C000C00008958091C200877F8093C200089577
:1011D000FF920F931F93F62E482F50E0CA018E5EA8
:1011E0009E4FFC012491CA018C509F4FFC01149129
:1011F0004A525F4FFA0104910023C9F0222319F0EB
:10120000822F0E949A08E02FF0E0EE0FFF1FE654B5
:10121000FF4FA591B4919FB7F894FF2021F48C91D2
:101220001095812302C08C91812B8C939FBF1F91BD
:101230000F91FF9008950F931F93482F50E0CA011C
:101240008E5E9E4FFC012491CA018C509F4FFC0181
:1012500004914A525F4FFA011491112319F420E0CE
:1012600030E015C0222319F0822F0E949A08812FA6
:1012700090E0880F991F88539F4FFC01A591B4916E
:101280008C9120E030E0802311F021E030E0C901B2
:101290001F910F910895089520916C0230916D0275
:1012A00080916E0290916F02281B390B2F73307062
:1012B000C901089520916C0230916D0280916E02F7
:1012C00090916F022817390719F42FEF3FEF09C0EB
:1012D000E0916E02F0916F02E45DFD4F8081282F56
:1012E00030E0C901089520916C0230916D02809127
:1012F0006E0290916F022817390719F42FEF3FEF14
:1013000013C0E0916E02F0916F02E45DFD4F208109
:1013100080916E0290916F0201968F7390709093FE
:101320006F0280936E0230E0C9010895109273023B
:101330001092720288EE93E0A0E0B0E08093740215
:1013400090937502A0937602B093770280EB91E0C0
:10135000909371028093700208951F931091A701DA
:101360006AE070E080E090E00E94A207111111E0B5
:10137000812F1F9108950F931F93DF93CF930F92A7
:10138000CDB7DEB78C0169838091A701882369F00E
:1013900083E0BE016F5F7F4F41E050E00E94CE0DC1
:1013A0001816190614F49C0107C081E090E0F801BA
:1013B0009383828320E030E0C9010F90CF91DF91C9
:1013C0001F910F91089583E00E94A30D0895CF937C
:1013D000DF9312C082E00E942E0D2FEF8F3F920705
:1013E000C9F0E0916C02F0916D02E45DFD4F8083E5
:1013F000D0936D02C0936C02C0916C02D0916D02CB
:101400002196CF73D07080916E0290916F02C817B1
:10141000D90701F7DF91CF910895FC0180818E5F9C
:10142000808380E86CE371E042E450E00E94470D65
:101430000895FC0181819081913A59F4813209F03B
:101440004CC080E060EA71E047E050E00E94470D48
:1014500042C0913209F041C0803239F480EA91E013
:1014600067E070E00E948B0D36C0823209F035C013
:1014700082818093A7018091A0019091A101A09108
:10148000A201B091A301805B9440A040B04019F547
:101490008091A70180FD12C087E797E7909301082C
:1014A000809300082BE088E190E00FB6F894A895AF
:1014B000809360000FBE209360000DC088E10FB6DE
:1014C000F89480936000109260000FBEA89510926F
:1014D00001081092000881E0089580E00895FC0161
:1014E00091818081813A31F4913089F080E09330AC
:1014F00089F40DC0813269F49B3021F4828180939C
:10150000A80105C09A3029F482818093A90181E065
:10151000089580E008950895FC0120E070E0808146
:1015200090E068237923161617060CF421E0822F29
:1015300008950895EF92FF920F931F938C01E62E6A
:10154000DC01ED91FC910480F581E02D0995F82EE8
:10155000D801ED91FC910680F781E02DC8016E2D38
:1015600009958F2D90E01F910F91FF90EF900895B6
:1015700010927E02109282021092810282EC91E01F
:101580009093800280937F020895EF92FF920F93D1
:101590001F93DF93CF930F92CDB7DEB789838B0173
:1015A0007A0184E0BE016F5F7F4F41E050E00E940E
:1015B000CE0D84E4B801A7010E94CE0D0F90CF910B
:1015C000DF911F910F91FF90EF90089582E048E026
:1015D00050E00E94C50A0895FC0116821782108609
:1015E00011861286138614823496BF010E94E60A81
:1015F0000895DC01683810F0685829C0E62FF0E043
:1016000067FF13C0E058F04081E090E002C0880F0F
:10161000991FEA95E2F7809514962C911497282348
:1016200014962C93149760E012C0E450FE4F64911E
:10163000662319F420E030E01DC067FF08C014964F
:101640008C9114978D7F14968C9314976F77FD016E
:1016500090E0662321F08681861709F416829F5F49
:1016600031969630B1F7CD011496BD010E94E60A7D
:1016700021E030E0C9010895CF93DF93DC016838A1
:1016800010F0685825C0E62FF0E067FF12C0E05860
:10169000F04081E090E002C0880F991FEA95E2F7E0
:1016A00014962C911497282B14962C93149760E081
:1016B0000FC0E450FE4F64916623D9F167FF08C064
:1016C00014968C911497826014968C9314976F776C
:1016D00016968C9116978617A9F117968C911797E5
:1016E000861781F118968C911897861759F11996DB
:1016F0008C911997861731F11A968C911A97861743
:1017000009F11B968C911B978617E1F0ED01E0E043
:10171000F0E09E2F8E81882321F4EA0FFB1F668361
:1017200006C09F5F31962196E630F10591F796301D
:1017300049F481E090E013969C938E93129720E0F9
:1017400030E007C0CD011496BD010E94E60A21E0F9
:1017500030E0C901DF91CF910895DF93CF9300D09E
:1017600000D0CDB7DEB7FC01808189836A834B83CB
:101770002C8381E0BE016F5F7F4F44E050E00E9408
:10178000C50A0F900F900F900F90CF91DF910895A1
:10179000FC018081681739F06083CF0160E040E090
:1017A00020E00E94AD0B0895FC0160952081262366
:1017B000622F0E94C80B0895FC01862F6081682B60
:1017C000CF010E94C80B089580E86EE771E045E6FE
:1017D00050E00E94470D0895FC0180818F5F808357
:1017E00080E863EE71E049E150E00E94470D089502
:1017F000CF93DF930E94050883E992E00E94AE0D2B
:101800000E943303C0E0D0E00E940A022097E1F377
:101810000E940000F9CFCF92DF92EF92FF920F93D8
:101820001F93CF93DF937C016B018A01C0E0D0E06E
:101830000FC0D6016D916D01D701ED91FC91019022
:10184000F081E02DC7010995C80FD91F0150104044
:101850000115110571F7CE01DF91CF911F910F9105
:10186000FF90EF90DF90CF900895EF92FF920F934B
:101870001F938C01DC01ED91FC910190F081E02D32
:101880006DE009957C01D801ED91FC910190F0810A
:10189000E02DC8016AE009959C012E0D3F1DC9018C
:1018A0001F910F91FF90EF900895CF93DF93EC017C
:1018B0006115710519F420E030E00FC0DB010D90D7
:1018C0000020E9F71197A61BB70BE881F981028088
:1018D000F381E02DAD0109959C01C901DF91CF9104
:1018E00008954F925F927F928F929F92AF92BF9294
:1018F000CF92DF92EF92FF920F931F93DF93CF93DC
:10190000CDB7DEB7A1970FB6F894DEBF0FBECDBF3F
:101910002C01742ECB01223008F42AE019A231E206
:10192000C32ED12CCC0EDD1E822E9924AA24BB24DA
:10193000672D752FA50194010E94621079018A011B
:10194000C801B701A50194010E944310472D461B11
:101950000894C108D1084A3014F4405D01C0495CC4
:10196000F6014083E114F1040105110521F07E2CFC
:101970005F2DC801DDCFC201B6010E94550CA196B2
:101980000FB6F894DEBF0FBECDBFCF91DF911F9190
:101990000F91FF90EF90DF90CF90BF90AF909F900E
:1019A0008F907F905F904F900895DC012115310555
:1019B00041F4ED91FC910190F081E02D642F0995A7
:1019C00008950E94710C08950E94550C0895EF929D
:1019D000FF920F931F937C010E94550C8C01C7014D
:1019E0000E94350C080F191FC8011F910F91FF901D
:1019F000EF900895282F80918D028823C1F057FF22
:101A00001AC015C0289A90938C028091F10081939E
:101A1000E217F307B9F74115510539F08091F2004B
:101A2000882319F48BE68093E800AFBF02C04FEF24
:101A30005FEFCA010895AFB7F89427702093E900CB
:101A40008091F200282F30E0241735070CF4A9010B
:101A5000FB019B01240F311D94E6DACFDF93CF9376
:101A60000F92CDB7DEB7BE016F5F7F4F41E050E010
:101A70000E94FA0C019719F02FEF3FEF03C0898104
:101A8000282F30E0C9010F90CF91DF910895FF9288
:101A90000F931F93F82E142F052F40919002509111
:101AA0009102212F302FC901DC01FB016EEF29C00B
:101AB000F7FE02C0949101C0908120918E02309176
:101AC0008F0224173507ACF48091E8008570E1F3AC
:101AD0008091E80082FF03C02FEF3FEF17C0909383
:101AE000F100C90101968F739070892B11F46093F6
:101AF000E8002F5F3F4F30938F0220938E021197A3
:101B000031961097A9F6812F902F9C01C9011F9142
:101B10000F91FF9008959C018091E80082FFFCCF17
:101B2000F901260F311D03C08091F1008193E21766
:101B3000F307D1F7289A84E680938C028BEF809389
:101B4000E800CB0108958093E9008091F20088239A
:101B500019F08AE38093E8000895089510928D02A9
:101B600081E08093D70080EA8093D80082E189BD2C
:101B700009B400FEFDCF61E070E080E090E00E94DB
:101B8000A20780E98093D8008CE08093E200109255
:101B9000E000559A209A5D98289808955F926F9278
:101BA0007F928F929F92AF92BF92CF92DF92EF92ED
:101BB000FF920F931F93CF93DF93E82E842E752E01
:101BC00080918D02882371F18B01242F352FC9015B
:101BD000EC017AEFF72E67E0962E9E2050E4552E0A
:101BE0008E2D90E040E2A42EB12CA822B9223AE337
:101BF000632E20E4C22ED12CC822D92258C09FB710
:101C0000F8949092E9008091E80085FD02C020E000
:101C100004C08091F200252D281B9FBF222361F470
:101C2000FA9419F42FEF3FEF4DC061E070E080E0CF
:101C300090E00E94A2073BC0822F90E0C817D9070E
:101C40000CF42C2FC21BD1094FB7F8949092E900E5
:101C5000A114B10421F406C01092F10021502223F6
:101C6000D9F719C0E7FC03C0F801922F10C0C801D2
:101C7000322F06C0FC010196E491E093F10031504F
:101C80003323C1F706C081918093F10091509923CD
:101C9000D1F7020F111D8091E80085FF05C0209744
:101CA00029F4C114D10411F06092E8004FBF2097CD
:101CB00009F0A5CF5D9A84E680938B02282D372DFD
:101CC000C9019C01C901DF91CF911F910F91FF9034
:101CD000EF90DF90CF90BF90AF909F908F907F90CC
:101CE0006F905F9008951F920F920FB60F9211247C
:101CF0002F933F934F935F936F937F938F939F9314
:101D0000AF93BF93EF93FF938091E1001092E100B6
:101D1000982F83FF0FC01092E90081E08093EB00C1
:101D20001092EC0082E38093ED0010928D0288E027
:101D30008093F00092FF34C083E08093E9008091AB
:101D4000F200882319F08AE38093E8008FB7F894B3
:101D500092E09093E9009091F2008FBF992321F0D7
:101D600080E792E00E94E70980918B02882351F07E
:101D700080918B02815080938B0280918B0288230B
:101D800009F45D9880918C02882351F080918C0237
:101D9000815080938C0280918C02882309F42898CA
:101DA000FF91EF91BF91AF919F918F917F916F9133
:101DB0005F914F913F912F910F900FBE0F901F9009
:101DC00018950F931F93DF93CF930F92CDB7DEB784
:101DD00019828E010F5F1F4FC8010E940D0AC801B2
:101DE0000E94EC0B898190E00F90CF91DF911F91C1
:101DF0000F9108951F920F920FB60F921124EF9238
:101E0000FF921F932F933F934F935F936F937F9313
:101E10008F939F93AF93BF93EF93FF93DF93CF93F2
:101E2000CDB7DEB76197DEBFCDBF1092E9008091DC
:101E3000E80083FF0FC1FE0131969E01275F3F4FEF
:101E400003C08091F1008193E217F307D1F7289A3C
:101E500084E680938C0282EF8093E800998197FF5B
:101E600005C08091E80080FFFCCF03C08EEF809317
:101E7000E800292F30E0C90180769070892B09F0A5
:101E8000C2C08A81882329F41092F1001092F100D7
:101E9000D6C0813009F4D3C0833009F4D0C0853076
:101EA00049F48091E80080FFFCCF8B8180688093AB
:101EB000E300C5C0863009F07CC01C81EF80F88447
:101EC0001230C1F51092E90010928F0210928E022A
:101ED00010929102109290020E94E10E99E0FE0190
:101EE0003996DF01292F1D922A95E9F799871A87DC
:101EF00091E09E8790E8988B9AEF998B20918E02C3
:101F000030918F02275F3F4F3C872B878D87109240
:101F1000E90010928F0210928E02F0929102E092EC
:101F2000900280E0BF0149E050E00E94470D0E940E
:101F3000E10E85C01092E90010928F0210928E027D
:101F4000F0929102E0929002123241F482E290E02B
:101F50000E94E40B892B09F476C071C0113079F42A
:101F600088E0E816F10419F481E0809392028091F0
:101F70009202882309F06BC0EAEBF2E013C0133041
:101F800009F061C08B81882319F4ECE7F2E00AC004
:101F9000823019F4E0E8F2E005C0813009F053C066
:101FA000E2EAF2E0449180E8BF0150E00E94470D70
:101FB00046C0873009F447C0883021F481E080931F
:101FC000F1003DC08930D9F523703070232BD9F54D
:101FD000EFEDF2E091E031E026E39093E9003093F9
:101FE000EB0084918093EC002093ED009F5F31968D
:101FF000953099F78EE78093EA001092EA008B8182
:1020000080938D021CC08F8198851092E9001092F8
:102010008F0210928E0290939102809390028D8194
:10202000882329F4CE0101960E94190A06C0823045
:1020300051F4CE0101960E946F0A882321F08EEFA1
:102040008093E80007C081E28093EB0003C0ECECD2
:10205000F2E0A8CF6196DEBFCDBFCF91DF91FF91B7
:10206000EF91BF91AF919F918F917F916F915F9110
:102070004F913F912F911F91FF90EF900F900FBEC6
:102080000F901F901895629FD001739FF001829F5F
:10209000E00DF11D649FE00DF11D929FF00D839FF7
:1020A000F00D749FF00D659FF00D9927729FB00D94
:1020B000E11DF91F639FB00DE11DF91FBD01CF01A7
:1020C00011240895A1E21A2EAA1BBB1BFD010DC00D
:1020D000AA1FBB1FEE1FFF1FA217B307E407F507D8
:1020E00020F0A21BB30BE40BF50B661F771F881FB4
:1020F000991F1A9469F760957095809590959B014A
:10210000AC01BD01CF010895EE0FFF1F0590F491C2
:10211000E02D099412E0CEEED2E004C0FE010E9450
:0E21200086102296C03FD107C9F7F894FFCF72
:10212E00564D4450455F31007C005F564D4450453E
:10213E0000564D4450565F317C5F564D445056000C
:10214E0060C2C335363DC92DCAD1D4D3D20000806A
:10215E003132333437383930CBCDCCD6D5CE0000F2
:10216E007177657275696F700000008300CF000093
:10217E00B3C1C474795DC85BB20000000000810079
:10218E00617364666A6B6C3B5C0000870000000044
:10219E00B100C56768C70027C6000000DA820000DC
:1021AE007A7863766D2C2E00B0000000D000858406
:1021BE00000000626E00002F20D7D900D8860000E4
:1021CE0000E100000000000001010102000000001B
:1021DE00BB090B0C4C0973095A09E309E709000006
:0C21EE0000009A0A0B0C3C0BF90AEC0AEA
:00000001FF
